{
  "_format": "hh-sol-artifact-1",
  "contractName": "UnsatiableGuy",
  "sourceName": "contracts/UTG.sol",
  "abi": [
    {
      "inputs": [],
      "stateMutability": "nonpayable",
      "type": "constructor"
    },
    {
      "anonymous": false,
      "inputs": [
        {
          "indexed": true,
          "internalType": "address",
          "name": "owner",
          "type": "address"
        },
        {
          "indexed": true,
          "internalType": "address",
          "name": "approved",
          "type": "address"
        },
        {
          "indexed": true,
          "internalType": "uint256",
          "name": "tokenId",
          "type": "uint256"
        }
      ],
      "name": "Approval",
      "type": "event"
    },
    {
      "anonymous": false,
      "inputs": [
        {
          "indexed": true,
          "internalType": "address",
          "name": "owner",
          "type": "address"
        },
        {
          "indexed": true,
          "internalType": "address",
          "name": "operator",
          "type": "address"
        },
        {
          "indexed": false,
          "internalType": "bool",
          "name": "approved",
          "type": "bool"
        }
      ],
      "name": "ApprovalForAll",
      "type": "event"
    },
    {
      "anonymous": false,
      "inputs": [
        {
          "indexed": true,
          "internalType": "address",
          "name": "previousOwner",
          "type": "address"
        },
        {
          "indexed": true,
          "internalType": "address",
          "name": "newOwner",
          "type": "address"
        }
      ],
      "name": "OwnershipTransferred",
      "type": "event"
    },
    {
      "anonymous": false,
      "inputs": [
        {
          "indexed": true,
          "internalType": "address",
          "name": "from",
          "type": "address"
        },
        {
          "indexed": true,
          "internalType": "address",
          "name": "to",
          "type": "address"
        },
        {
          "indexed": true,
          "internalType": "uint256",
          "name": "tokenId",
          "type": "uint256"
        }
      ],
      "name": "Transfer",
      "type": "event"
    },
    {
      "inputs": [
        {
          "internalType": "address",
          "name": "to",
          "type": "address"
        },
        {
          "internalType": "uint256",
          "name": "tokenId",
          "type": "uint256"
        }
      ],
      "name": "approve",
      "outputs": [],
      "stateMutability": "nonpayable",
      "type": "function"
    },
    {
      "inputs": [
        {
          "internalType": "address",
          "name": "owner",
          "type": "address"
        }
      ],
      "name": "balanceOf",
      "outputs": [
        {
          "internalType": "uint256",
          "name": "",
          "type": "uint256"
        }
      ],
      "stateMutability": "view",
      "type": "function"
    },
    {
      "inputs": [],
      "name": "count",
      "outputs": [
        {
          "internalType": "uint256",
          "name": "",
          "type": "uint256"
        }
      ],
      "stateMutability": "view",
      "type": "function"
    },
    {
      "inputs": [
        {
          "internalType": "uint256",
          "name": "tokenId",
          "type": "uint256"
        }
      ],
      "name": "getApproved",
      "outputs": [
        {
          "internalType": "address",
          "name": "",
          "type": "address"
        }
      ],
      "stateMutability": "view",
      "type": "function"
    },
    {
      "inputs": [
        {
          "internalType": "address",
          "name": "owner",
          "type": "address"
        },
        {
          "internalType": "address",
          "name": "operator",
          "type": "address"
        }
      ],
      "name": "isApprovedForAll",
      "outputs": [
        {
          "internalType": "bool",
          "name": "",
          "type": "bool"
        }
      ],
      "stateMutability": "view",
      "type": "function"
    },
    {
      "inputs": [
        {
          "internalType": "string",
          "name": "uri",
          "type": "string"
        }
      ],
      "name": "isContentOwned",
      "outputs": [
        {
          "internalType": "bool",
          "name": "",
          "type": "bool"
        }
      ],
      "stateMutability": "view",
      "type": "function"
    },
    {
      "inputs": [],
      "name": "name",
      "outputs": [
        {
          "internalType": "string",
          "name": "",
          "type": "string"
        }
      ],
      "stateMutability": "view",
      "type": "function"
    },
    {
      "inputs": [],
      "name": "owner",
      "outputs": [
        {
          "internalType": "address",
          "name": "",
          "type": "address"
        }
      ],
      "stateMutability": "view",
      "type": "function"
    },
    {
      "inputs": [
        {
          "internalType": "uint256",
          "name": "tokenId",
          "type": "uint256"
        }
      ],
      "name": "ownerOf",
      "outputs": [
        {
          "internalType": "address",
          "name": "",
          "type": "address"
        }
      ],
      "stateMutability": "view",
      "type": "function"
    },
    {
      "inputs": [
        {
          "internalType": "address",
          "name": "recipient",
          "type": "address"
        },
        {
          "internalType": "string",
          "name": "metadataURI",
          "type": "string"
        }
      ],
      "name": "payToMint",
      "outputs": [
        {
          "internalType": "uint256",
          "name": "",
          "type": "uint256"
        }
      ],
      "stateMutability": "payable",
      "type": "function"
    },
    {
      "inputs": [],
      "name": "renounceOwnership",
      "outputs": [],
      "stateMutability": "nonpayable",
      "type": "function"
    },
    {
      "inputs": [
        {
          "internalType": "address",
          "name": "to",
          "type": "address"
        },
        {
          "internalType": "string",
          "name": "uri",
          "type": "string"
        }
      ],
      "name": "safeMint",
      "outputs": [],
      "stateMutability": "nonpayable",
      "type": "function"
    },
    {
      "inputs": [
        {
          "internalType": "address",
          "name": "from",
          "type": "address"
        },
        {
          "internalType": "address",
          "name": "to",
          "type": "address"
        },
        {
          "internalType": "uint256",
          "name": "tokenId",
          "type": "uint256"
        }
      ],
      "name": "safeTransferFrom",
      "outputs": [],
      "stateMutability": "nonpayable",
      "type": "function"
    },
    {
      "inputs": [
        {
          "internalType": "address",
          "name": "from",
          "type": "address"
        },
        {
          "internalType": "address",
          "name": "to",
          "type": "address"
        },
        {
          "internalType": "uint256",
          "name": "tokenId",
          "type": "uint256"
        },
        {
          "internalType": "bytes",
          "name": "_data",
          "type": "bytes"
        }
      ],
      "name": "safeTransferFrom",
      "outputs": [],
      "stateMutability": "nonpayable",
      "type": "function"
    },
    {
      "inputs": [
        {
          "internalType": "address",
          "name": "operator",
          "type": "address"
        },
        {
          "internalType": "bool",
          "name": "approved",
          "type": "bool"
        }
      ],
      "name": "setApprovalForAll",
      "outputs": [],
      "stateMutability": "nonpayable",
      "type": "function"
    },
    {
      "inputs": [
        {
          "internalType": "bytes4",
          "name": "interfaceId",
          "type": "bytes4"
        }
      ],
      "name": "supportsInterface",
      "outputs": [
        {
          "internalType": "bool",
          "name": "",
          "type": "bool"
        }
      ],
      "stateMutability": "view",
      "type": "function"
    },
    {
      "inputs": [],
      "name": "symbol",
      "outputs": [
        {
          "internalType": "string",
          "name": "",
          "type": "string"
        }
      ],
      "stateMutability": "view",
      "type": "function"
    },
    {
      "inputs": [
        {
          "internalType": "uint256",
          "name": "tokenId",
          "type": "uint256"
        }
      ],
      "name": "tokenURI",
      "outputs": [
        {
          "internalType": "string",
          "name": "",
          "type": "string"
        }
      ],
      "stateMutability": "view",
      "type": "function"
    },
    {
      "inputs": [
        {
          "internalType": "address",
          "name": "from",
          "type": "address"
        },
        {
          "internalType": "address",
          "name": "to",
          "type": "address"
        },
        {
          "internalType": "uint256",
          "name": "tokenId",
          "type": "uint256"
        }
      ],
      "name": "transferFrom",
      "outputs": [],
      "stateMutability": "nonpayable",
      "type": "function"
    },
    {
      "inputs": [
        {
          "internalType": "address",
          "name": "newOwner",
          "type": "address"
        }
      ],
      "name": "transferOwnership",
      "outputs": [],
      "stateMutability": "nonpayable",
      "type": "function"
    }
  ],
  "bytecode": "0x60806040523480156200001157600080fd5b506040518060400160405280600d81526020017f556e7361746961626c65477579000000000000000000000000000000000000008152506040518060400160405280600381526020017f5554470000000000000000000000000000000000000000000000000000000000815250816000908051906020019062000096929190620001a6565b508060019080519060200190620000af929190620001a6565b505050620000d2620000c6620000d860201b60201c565b620000e060201b60201c565b620002bb565b600033905090565b6000600760009054906101000a900473ffffffffffffffffffffffffffffffffffffffff16905081600760006101000a81548173ffffffffffffffffffffffffffffffffffffffff021916908373ffffffffffffffffffffffffffffffffffffffff1602179055508173ffffffffffffffffffffffffffffffffffffffff168173ffffffffffffffffffffffffffffffffffffffff167f8be0079c531659141344cd1fd0a4f28419497f9722a3daafe3b4186f6b6457e060405160405180910390a35050565b828054620001b49062000256565b90600052602060002090601f016020900481019282620001d8576000855562000224565b82601f10620001f357805160ff191683800117855562000224565b8280016001018555821562000224579182015b828111156200022357825182559160200191906001019062000206565b5b50905062000233919062000237565b5090565b5b808211156200025257600081600090555060010162000238565b5090565b600060028204905060018216806200026f57607f821691505b602082108114156200028657620002856200028c565b5b50919050565b7f4e487b7100000000000000000000000000000000000000000000000000000000600052602260045260246000fd5b61348a80620002cb6000396000f3fe60806040526004361061011f5760003560e01c8063715018a6116100a0578063b88d4fde11610064578063b88d4fde146103ec578063c87b56dd14610415578063d204c45e14610452578063e985e9c51461047b578063f2fde38b146104b85761011f565b8063715018a6146103195780638da5cb5b1461033057806395d89b411461035b5780639f1cabc614610386578063a22cb465146103c35761011f565b806323b872dd116100e757806323b872dd1461021d57806342842e0e14610246578063615fd9e21461026f5780636352211e1461029f57806370a08231146102dc5761011f565b806301ffc9a71461012457806306661abd1461016157806306fdde031461018c578063081812fc146101b7578063095ea7b3146101f4575b600080fd5b34801561013057600080fd5b5061014b60048036038101906101469190612309565b6104e1565b60405161015891906127f3565b60405180910390f35b34801561016d57600080fd5b506101766105c3565b6040516101839190612ab0565b60405180910390f35b34801561019857600080fd5b506101a16105d4565b6040516101ae919061280e565b60405180910390f35b3480156101c357600080fd5b506101de60048036038101906101d9919061239c565b610666565b6040516101eb919061278c565b60405180910390f35b34801561020057600080fd5b5061021b600480360381019061021691906122cd565b6106eb565b005b34801561022957600080fd5b50610244600480360381019061023f9190612173565b610803565b005b34801561025257600080fd5b5061026d60048036038101906102689190612173565b610863565b005b61028960048036038101906102849190612279565b610883565b6040516102969190612ab0565b60405180910390f35b3480156102ab57600080fd5b506102c660048036038101906102c1919061239c565b6109af565b6040516102d3919061278c565b60405180910390f35b3480156102e857600080fd5b5061030360048036038101906102fe919061210e565b610a61565b6040516103109190612ab0565b60405180910390f35b34801561032557600080fd5b5061032e610b19565b005b34801561033c57600080fd5b50610345610ba1565b604051610352919061278c565b60405180910390f35b34801561036757600080fd5b50610370610bcb565b60405161037d919061280e565b60405180910390f35b34801561039257600080fd5b506103ad60048036038101906103a8919061235b565b610c5d565b6040516103ba91906127f3565b60405180910390f35b3480156103cf57600080fd5b506103ea60048036038101906103e5919061223d565b610c98565b005b3480156103f857600080fd5b50610413600480360381019061040e91906121c2565b610cae565b005b34801561042157600080fd5b5061043c6004803603810190610437919061239c565b610d10565b604051610449919061280e565b60405180910390f35b34801561045e57600080fd5b5061047960048036038101906104749190612279565b610d22565b005b34801561048757600080fd5b506104a2600480360381019061049d9190612137565b610dcf565b6040516104af91906127f3565b60405180910390f35b3480156104c457600080fd5b506104df60048036038101906104da919061210e565b610e63565b005b60007f80ac58cd000000000000000000000000000000000000000000000000000000007bffffffffffffffffffffffffffffffffffffffffffffffffffffffff1916827bffffffffffffffffffffffffffffffffffffffffffffffffffffffff191614806105ac57507f5b5e139f000000000000000000000000000000000000000000000000000000007bffffffffffffffffffffffffffffffffffffffffffffffffffffffff1916827bffffffffffffffffffffffffffffffffffffffffffffffffffffffff1916145b806105bc57506105bb82610f5b565b5b9050919050565b60006105cf6008610fc5565b905090565b6060600080546105e390612d06565b80601f016020809104026020016040519081016040528092919081815260200182805461060f90612d06565b801561065c5780601f106106315761010080835404028352916020019161065c565b820191906000526020600020905b81548152906001019060200180831161063f57829003601f168201915b5050505050905090565b600061067182610fd3565b6106b0576040517f08c379a00000000000000000000000000000000000000000000000000000000081526004016106a7906129d0565b60405180910390fd5b6004600083815260200190815260200160002060009054906101000a900473ffffffffffffffffffffffffffffffffffffffff169050919050565b60006106f6826109af565b90508073ffffffffffffffffffffffffffffffffffffffff168373ffffffffffffffffffffffffffffffffffffffff161415610767576040517f08c379a000000000000000000000000000000000000000000000000000000000815260040161075e90612a30565b60405180910390fd5b8073ffffffffffffffffffffffffffffffffffffffff1661078661103f565b73ffffffffffffffffffffffffffffffffffffffff1614806107b557506107b4816107af61103f565b610dcf565b5b6107f4576040517f08c379a00000000000000000000000000000000000000000000000000000000081526004016107eb90612910565b60405180910390fd5b6107fe8383611047565b505050565b61081461080e61103f565b82611100565b610853576040517f08c379a000000000000000000000000000000000000000000000000000000000815260040161084a90612a50565b60405180910390fd5b61085e8383836111de565b505050565b61087e83838360405180602001604052806000815250610cae565b505050565b600060016009836040516108979190612751565b908152602001604051809103902060009054906101000a900460ff1660ff1614156108f7576040517f08c379a00000000000000000000000000000000000000000000000000000000081526004016108ee90612a70565b60405180910390fd5b66b1a2bc2ec50000341015610941576040517f08c379a000000000000000000000000000000000000000000000000000000000815260040161093890612a90565b60405180910390fd5b600061094d6008610fc5565b90506109596008611445565b600160098460405161096b9190612751565b908152602001604051809103902060006101000a81548160ff021916908360ff16021790555061099b848261145b565b6109a58184611635565b8091505092915050565b6000806002600084815260200190815260200160002060009054906101000a900473ffffffffffffffffffffffffffffffffffffffff169050600073ffffffffffffffffffffffffffffffffffffffff168173ffffffffffffffffffffffffffffffffffffffff161415610a58576040517f08c379a0000000000000000000000000000000000000000000000000000000008152600401610a4f90612950565b60405180910390fd5b80915050919050565b60008073ffffffffffffffffffffffffffffffffffffffff168273ffffffffffffffffffffffffffffffffffffffff161415610ad2576040517f08c379a0000000000000000000000000000000000000000000000000000000008152600401610ac990612930565b60405180910390fd5b600360008373ffffffffffffffffffffffffffffffffffffffff1673ffffffffffffffffffffffffffffffffffffffff168152602001908152602001600020549050919050565b610b2161103f565b73ffffffffffffffffffffffffffffffffffffffff16610b3f610ba1565b73ffffffffffffffffffffffffffffffffffffffff1614610b95576040517f08c379a0000000000000000000000000000000000000000000000000000000008152600401610b8c906129f0565b60405180910390fd5b610b9f60006116a9565b565b6000600760009054906101000a900473ffffffffffffffffffffffffffffffffffffffff16905090565b606060018054610bda90612d06565b80601f0160208091040260200160405190810160405280929190818152602001828054610c0690612d06565b8015610c535780601f10610c2857610100808354040283529160200191610c53565b820191906000526020600020905b815481529060010190602001808311610c3657829003601f168201915b5050505050905090565b60006001600983604051610c719190612751565b908152602001604051809103902060009054906101000a900460ff1660ff16149050919050565b610caa610ca361103f565b838361176f565b5050565b610cbf610cb961103f565b83611100565b610cfe576040517f08c379a0000000000000000000000000000000000000000000000000000000008152600401610cf590612a50565b60405180910390fd5b610d0a848484846118dc565b50505050565b6060610d1b82611938565b9050919050565b610d2a61103f565b73ffffffffffffffffffffffffffffffffffffffff16610d48610ba1565b73ffffffffffffffffffffffffffffffffffffffff1614610d9e576040517f08c379a0000000000000000000000000000000000000000000000000000000008152600401610d95906129f0565b60405180910390fd5b6000610daa6008610fc5565b9050610db66008611445565b610dc08382611a8a565b610dca8183611635565b505050565b6000600560008473ffffffffffffffffffffffffffffffffffffffff1673ffffffffffffffffffffffffffffffffffffffff16815260200190815260200160002060008373ffffffffffffffffffffffffffffffffffffffff1673ffffffffffffffffffffffffffffffffffffffff16815260200190815260200160002060009054906101000a900460ff16905092915050565b610e6b61103f565b73ffffffffffffffffffffffffffffffffffffffff16610e89610ba1565b73ffffffffffffffffffffffffffffffffffffffff1614610edf576040517f08c379a0000000000000000000000000000000000000000000000000000000008152600401610ed6906129f0565b60405180910390fd5b600073ffffffffffffffffffffffffffffffffffffffff168173ffffffffffffffffffffffffffffffffffffffff161415610f4f576040517f08c379a0000000000000000000000000000000000000000000000000000000008152600401610f4690612850565b60405180910390fd5b610f58816116a9565b50565b60007f01ffc9a7000000000000000000000000000000000000000000000000000000007bffffffffffffffffffffffffffffffffffffffffffffffffffffffff1916827bffffffffffffffffffffffffffffffffffffffffffffffffffffffff1916149050919050565b600081600001549050919050565b60008073ffffffffffffffffffffffffffffffffffffffff166002600084815260200190815260200160002060009054906101000a900473ffffffffffffffffffffffffffffffffffffffff1673ffffffffffffffffffffffffffffffffffffffff1614159050919050565b600033905090565b816004600083815260200190815260200160002060006101000a81548173ffffffffffffffffffffffffffffffffffffffff021916908373ffffffffffffffffffffffffffffffffffffffff160217905550808273ffffffffffffffffffffffffffffffffffffffff166110ba836109af565b73ffffffffffffffffffffffffffffffffffffffff167f8c5be1e5ebec7d5bd14f71427d1e84f3dd0314c0f7b2291e5b200ac8c7c3b92560405160405180910390a45050565b600061110b82610fd3565b61114a576040517f08c379a0000000000000000000000000000000000000000000000000000000008152600401611141906128f0565b60405180910390fd5b6000611155836109af565b90508073ffffffffffffffffffffffffffffffffffffffff168473ffffffffffffffffffffffffffffffffffffffff1614806111c457508373ffffffffffffffffffffffffffffffffffffffff166111ac84610666565b73ffffffffffffffffffffffffffffffffffffffff16145b806111d557506111d48185610dcf565b5b91505092915050565b8273ffffffffffffffffffffffffffffffffffffffff166111fe826109af565b73ffffffffffffffffffffffffffffffffffffffff1614611254576040517f08c379a000000000000000000000000000000000000000000000000000000000815260040161124b90612870565b60405180910390fd5b600073ffffffffffffffffffffffffffffffffffffffff168273ffffffffffffffffffffffffffffffffffffffff1614156112c4576040517f08c379a00000000000000000000000000000000000000000000000000000000081526004016112bb906128b0565b60405180910390fd5b6112cf838383611aa8565b6112da600082611047565b6001600360008573ffffffffffffffffffffffffffffffffffffffff1673ffffffffffffffffffffffffffffffffffffffff168152602001908152602001600020600082825461132a9190612c1c565b925050819055506001600360008473ffffffffffffffffffffffffffffffffffffffff1673ffffffffffffffffffffffffffffffffffffffff16815260200190815260200160002060008282546113819190612b95565b92505081905550816002600083815260200190815260200160002060006101000a81548173ffffffffffffffffffffffffffffffffffffffff021916908373ffffffffffffffffffffffffffffffffffffffff160217905550808273ffffffffffffffffffffffffffffffffffffffff168473ffffffffffffffffffffffffffffffffffffffff167fddf252ad1be2c89b69c2b068fc378daa952ba7f163c4a11628f55a4df523b3ef60405160405180910390a4611440838383611aad565b505050565b6001816000016000828254019250508190555050565b600073ffffffffffffffffffffffffffffffffffffffff168273ffffffffffffffffffffffffffffffffffffffff1614156114cb576040517f08c379a00000000000000000000000000000000000000000000000000000000081526004016114c290612990565b60405180910390fd5b6114d481610fd3565b15611514576040517f08c379a000000000000000000000000000000000000000000000000000000000815260040161150b90612890565b60405180910390fd5b61152060008383611aa8565b6001600360008473ffffffffffffffffffffffffffffffffffffffff1673ffffffffffffffffffffffffffffffffffffffff16815260200190815260200160002060008282546115709190612b95565b92505081905550816002600083815260200190815260200160002060006101000a81548173ffffffffffffffffffffffffffffffffffffffff021916908373ffffffffffffffffffffffffffffffffffffffff160217905550808273ffffffffffffffffffffffffffffffffffffffff16600073ffffffffffffffffffffffffffffffffffffffff167fddf252ad1be2c89b69c2b068fc378daa952ba7f163c4a11628f55a4df523b3ef60405160405180910390a461163160008383611aad565b5050565b61163e82610fd3565b61167d576040517f08c379a000000000000000000000000000000000000000000000000000000000815260040161167490612970565b60405180910390fd5b806006600084815260200190815260200160002090805190602001906116a4929190611f32565b505050565b6000600760009054906101000a900473ffffffffffffffffffffffffffffffffffffffff16905081600760006101000a81548173ffffffffffffffffffffffffffffffffffffffff021916908373ffffffffffffffffffffffffffffffffffffffff1602179055508173ffffffffffffffffffffffffffffffffffffffff168173ffffffffffffffffffffffffffffffffffffffff167f8be0079c531659141344cd1fd0a4f28419497f9722a3daafe3b4186f6b6457e060405160405180910390a35050565b8173ffffffffffffffffffffffffffffffffffffffff168373ffffffffffffffffffffffffffffffffffffffff1614156117de576040517f08c379a00000000000000000000000000000000000000000000000000000000081526004016117d5906128d0565b60405180910390fd5b80600560008573ffffffffffffffffffffffffffffffffffffffff1673ffffffffffffffffffffffffffffffffffffffff16815260200190815260200160002060008473ffffffffffffffffffffffffffffffffffffffff1673ffffffffffffffffffffffffffffffffffffffff16815260200190815260200160002060006101000a81548160ff0219169083151502179055508173ffffffffffffffffffffffffffffffffffffffff168373ffffffffffffffffffffffffffffffffffffffff167f17307eab39ab6107e8899845ad3d59bd9653f200f220920489ca2b5937696c31836040516118cf91906127f3565b60405180910390a3505050565b6118e78484846111de565b6118f384848484611ab2565b611932576040517f08c379a000000000000000000000000000000000000000000000000000000000815260040161192990612830565b60405180910390fd5b50505050565b606061194382610fd3565b611982576040517f08c379a0000000000000000000000000000000000000000000000000000000008152600401611979906129b0565b60405180910390fd5b60006006600084815260200190815260200160002080546119a290612d06565b80601f01602080910402602001604051908101604052809291908181526020018280546119ce90612d06565b8015611a1b5780601f106119f057610100808354040283529160200191611a1b565b820191906000526020600020905b8154815290600101906020018083116119fe57829003601f168201915b505050505090506000611a2c611c49565b9050600081511415611a42578192505050611a85565b600082511115611a77578082604051602001611a5f929190612768565b60405160208183030381529060405292505050611a85565b611a8084611c60565b925050505b919050565b611aa4828260405180602001604052806000815250611d07565b5050565b505050565b505050565b6000611ad38473ffffffffffffffffffffffffffffffffffffffff16611d62565b15611c3c578373ffffffffffffffffffffffffffffffffffffffff1663150b7a02611afc61103f565b8786866040518563ffffffff1660e01b8152600401611b1e94939291906127a7565b602060405180830381600087803b158015611b3857600080fd5b505af1925050508015611b6957506040513d601f19601f82011682018060405250810190611b669190612332565b60015b611bec573d8060008114611b99576040519150601f19603f3d011682016040523d82523d6000602084013e611b9e565b606091505b50600081511415611be4576040517f08c379a0000000000000000000000000000000000000000000000000000000008152600401611bdb90612830565b60405180910390fd5b805181602001fd5b63150b7a0260e01b7bffffffffffffffffffffffffffffffffffffffffffffffffffffffff1916817bffffffffffffffffffffffffffffffffffffffffffffffffffffffff191614915050611c41565b600190505b949350505050565b606060405180602001604052806000815250905090565b6060611c6b82610fd3565b611caa576040517f08c379a0000000000000000000000000000000000000000000000000000000008152600401611ca190612a10565b60405180910390fd5b6000611cb4611c49565b90506000815111611cd45760405180602001604052806000815250611cff565b80611cde84611d85565b604051602001611cef929190612768565b6040516020818303038152906040525b915050919050565b611d11838361145b565b611d1e6000848484611ab2565b611d5d576040517f08c379a0000000000000000000000000000000000000000000000000000000008152600401611d5490612830565b60405180910390fd5b505050565b6000808273ffffffffffffffffffffffffffffffffffffffff163b119050919050565b60606000821415611dcd576040518060400160405280600181526020017f30000000000000000000000000000000000000000000000000000000000000008152509050611f2d565b600082905060005b60008214611dff578080611de890612d69565b915050600a82611df89190612beb565b9150611dd5565b60008167ffffffffffffffff811115611e41577f4e487b7100000000000000000000000000000000000000000000000000000000600052604160045260246000fd5b6040519080825280601f01601f191660200182016040528015611e735781602001600182028036833780820191505090505b5090505b60008514611f2657600182611e8c9190612c1c565b9150600a85611e9b9190612db2565b6030611ea79190612b95565b60f81b818381518110611ee3577f4e487b7100000000000000000000000000000000000000000000000000000000600052603260045260246000fd5b60200101907effffffffffffffffffffffffffffffffffffffffffffffffffffffffffffff1916908160001a905350600a85611f1f9190612beb565b9450611e77565b8093505050505b919050565b828054611f3e90612d06565b90600052602060002090601f016020900481019282611f605760008555611fa7565b82601f10611f7957805160ff1916838001178555611fa7565b82800160010185558215611fa7579182015b82811115611fa6578251825591602001919060010190611f8b565b5b509050611fb49190611fb8565b5090565b5b80821115611fd1576000816000905550600101611fb9565b5090565b6000611fe8611fe384612af0565b612acb565b90508281526020810184848401111561200057600080fd5b61200b848285612cc4565b509392505050565b600061202661202184612b21565b612acb565b90508281526020810184848401111561203e57600080fd5b612049848285612cc4565b509392505050565b600081359050612060816133f8565b92915050565b6000813590506120758161340f565b92915050565b60008135905061208a81613426565b92915050565b60008151905061209f81613426565b92915050565b600082601f8301126120b657600080fd5b81356120c6848260208601611fd5565b91505092915050565b600082601f8301126120e057600080fd5b81356120f0848260208601612013565b91505092915050565b6000813590506121088161343d565b92915050565b60006020828403121561212057600080fd5b600061212e84828501612051565b91505092915050565b6000806040838503121561214a57600080fd5b600061215885828601612051565b925050602061216985828601612051565b9150509250929050565b60008060006060848603121561218857600080fd5b600061219686828701612051565b93505060206121a786828701612051565b92505060406121b8868287016120f9565b9150509250925092565b600080600080608085870312156121d857600080fd5b60006121e687828801612051565b94505060206121f787828801612051565b9350506040612208878288016120f9565b925050606085013567ffffffffffffffff81111561222557600080fd5b612231878288016120a5565b91505092959194509250565b6000806040838503121561225057600080fd5b600061225e85828601612051565b925050602061226f85828601612066565b9150509250929050565b6000806040838503121561228c57600080fd5b600061229a85828601612051565b925050602083013567ffffffffffffffff8111156122b757600080fd5b6122c3858286016120cf565b9150509250929050565b600080604083850312156122e057600080fd5b60006122ee85828601612051565b92505060206122ff858286016120f9565b9150509250929050565b60006020828403121561231b57600080fd5b60006123298482850161207b565b91505092915050565b60006020828403121561234457600080fd5b600061235284828501612090565b91505092915050565b60006020828403121561236d57600080fd5b600082013567ffffffffffffffff81111561238757600080fd5b612393848285016120cf565b91505092915050565b6000602082840312156123ae57600080fd5b60006123bc848285016120f9565b91505092915050565b6123ce81612c50565b82525050565b6123dd81612c62565b82525050565b60006123ee82612b52565b6123f88185612b68565b9350612408818560208601612cd3565b61241181612e9f565b840191505092915050565b600061242782612b5d565b6124318185612b79565b9350612441818560208601612cd3565b61244a81612e9f565b840191505092915050565b600061246082612b5d565b61246a8185612b8a565b935061247a818560208601612cd3565b80840191505092915050565b6000612493603283612b79565b915061249e82612eb0565b604082019050919050565b60006124b6602683612b79565b91506124c182612eff565b604082019050919050565b60006124d9602583612b79565b91506124e482612f4e565b604082019050919050565b60006124fc601c83612b79565b915061250782612f9d565b602082019050919050565b600061251f602483612b79565b915061252a82612fc6565b604082019050919050565b6000612542601983612b79565b915061254d82613015565b602082019050919050565b6000612565602c83612b79565b91506125708261303e565b604082019050919050565b6000612588603883612b79565b91506125938261308d565b604082019050919050565b60006125ab602a83612b79565b91506125b6826130dc565b604082019050919050565b60006125ce602983612b79565b91506125d98261312b565b604082019050919050565b60006125f1602e83612b79565b91506125fc8261317a565b604082019050919050565b6000612614602083612b79565b915061261f826131c9565b602082019050919050565b6000612637603183612b79565b9150612642826131f2565b604082019050919050565b600061265a602c83612b79565b915061266582613241565b604082019050919050565b600061267d602083612b79565b915061268882613290565b602082019050919050565b60006126a0602f83612b79565b91506126ab826132b9565b604082019050919050565b60006126c3602183612b79565b91506126ce82613308565b604082019050919050565b60006126e6603183612b79565b91506126f182613357565b604082019050919050565b6000612709601383612b79565b9150612714826133a6565b602082019050919050565b600061272c600f83612b79565b9150612737826133cf565b602082019050919050565b61274b81612cba565b82525050565b600061275d8284612455565b915081905092915050565b60006127748285612455565b91506127808284612455565b91508190509392505050565b60006020820190506127a160008301846123c5565b92915050565b60006080820190506127bc60008301876123c5565b6127c960208301866123c5565b6127d66040830185612742565b81810360608301526127e881846123e3565b905095945050505050565b600060208201905061280860008301846123d4565b92915050565b60006020820190508181036000830152612828818461241c565b905092915050565b6000602082019050818103600083015261284981612486565b9050919050565b60006020820190508181036000830152612869816124a9565b9050919050565b60006020820190508181036000830152612889816124cc565b9050919050565b600060208201905081810360008301526128a9816124ef565b9050919050565b600060208201905081810360008301526128c981612512565b9050919050565b600060208201905081810360008301526128e981612535565b9050919050565b6000602082019050818103600083015261290981612558565b9050919050565b600060208201905081810360008301526129298161257b565b9050919050565b600060208201905081810360008301526129498161259e565b9050919050565b60006020820190508181036000830152612969816125c1565b9050919050565b60006020820190508181036000830152612989816125e4565b9050919050565b600060208201905081810360008301526129a981612607565b9050919050565b600060208201905081810360008301526129c98161262a565b9050919050565b600060208201905081810360008301526129e98161264d565b9050919050565b60006020820190508181036000830152612a0981612670565b9050919050565b60006020820190508181036000830152612a2981612693565b9050919050565b60006020820190508181036000830152612a49816126b6565b9050919050565b60006020820190508181036000830152612a69816126d9565b9050919050565b60006020820190508181036000830152612a89816126fc565b9050919050565b60006020820190508181036000830152612aa98161271f565b9050919050565b6000602082019050612ac56000830184612742565b92915050565b6000612ad5612ae6565b9050612ae18282612d38565b919050565b6000604051905090565b600067ffffffffffffffff821115612b0b57612b0a612e70565b5b612b1482612e9f565b9050602081019050919050565b600067ffffffffffffffff821115612b3c57612b3b612e70565b5b612b4582612e9f565b9050602081019050919050565b600081519050919050565b600081519050919050565b600082825260208201905092915050565b600082825260208201905092915050565b600081905092915050565b6000612ba082612cba565b9150612bab83612cba565b9250827fffffffffffffffffffffffffffffffffffffffffffffffffffffffffffffffff03821115612be057612bdf612de3565b5b828201905092915050565b6000612bf682612cba565b9150612c0183612cba565b925082612c1157612c10612e12565b5b828204905092915050565b6000612c2782612cba565b9150612c3283612cba565b925082821015612c4557612c44612de3565b5b828203905092915050565b6000612c5b82612c9a565b9050919050565b60008115159050919050565b60007fffffffff0000000000000000000000000000000000000000000000000000000082169050919050565b600073ffffffffffffffffffffffffffffffffffffffff82169050919050565b6000819050919050565b82818337600083830152505050565b60005b83811015612cf1578082015181840152602081019050612cd6565b83811115612d00576000848401525b50505050565b60006002820490506001821680612d1e57607f821691505b60208210811415612d3257612d31612e41565b5b50919050565b612d4182612e9f565b810181811067ffffffffffffffff82111715612d6057612d5f612e70565b5b80604052505050565b6000612d7482612cba565b91507fffffffffffffffffffffffffffffffffffffffffffffffffffffffffffffffff821415612da757612da6612de3565b5b600182019050919050565b6000612dbd82612cba565b9150612dc883612cba565b925082612dd857612dd7612e12565b5b828206905092915050565b7f4e487b7100000000000000000000000000000000000000000000000000000000600052601160045260246000fd5b7f4e487b7100000000000000000000000000000000000000000000000000000000600052601260045260246000fd5b7f4e487b7100000000000000000000000000000000000000000000000000000000600052602260045260246000fd5b7f4e487b7100000000000000000000000000000000000000000000000000000000600052604160045260246000fd5b6000601f19601f8301169050919050565b7f4552433732313a207472616e7366657220746f206e6f6e20455243373231526560008201527f63656976657220696d706c656d656e7465720000000000000000000000000000602082015250565b7f4f776e61626c653a206e6577206f776e657220697320746865207a65726f206160008201527f6464726573730000000000000000000000000000000000000000000000000000602082015250565b7f4552433732313a207472616e736665722066726f6d20696e636f72726563742060008201527f6f776e6572000000000000000000000000000000000000000000000000000000602082015250565b7f4552433732313a20746f6b656e20616c7265616479206d696e74656400000000600082015250565b7f4552433732313a207472616e7366657220746f20746865207a65726f2061646460008201527f7265737300000000000000000000000000000000000000000000000000000000602082015250565b7f4552433732313a20617070726f766520746f2063616c6c657200000000000000600082015250565b7f4552433732313a206f70657261746f7220717565727920666f72206e6f6e657860008201527f697374656e7420746f6b656e0000000000000000000000000000000000000000602082015250565b7f4552433732313a20617070726f76652063616c6c6572206973206e6f74206f7760008201527f6e6572206e6f7220617070726f76656420666f7220616c6c0000000000000000602082015250565b7f4552433732313a2062616c616e636520717565727920666f7220746865207a6560008201527f726f206164647265737300000000000000000000000000000000000000000000602082015250565b7f4552433732313a206f776e657220717565727920666f72206e6f6e657869737460008201527f656e7420746f6b656e0000000000000000000000000000000000000000000000602082015250565b7f45524337323155524953746f726167653a2055524920736574206f66206e6f6e60008201527f6578697374656e7420746f6b656e000000000000000000000000000000000000602082015250565b7f4552433732313a206d696e7420746f20746865207a65726f2061646472657373600082015250565b7f45524337323155524953746f726167653a2055524920717565727920666f722060008201527f6e6f6e6578697374656e7420746f6b656e000000000000000000000000000000602082015250565b7f4552433732313a20617070726f76656420717565727920666f72206e6f6e657860008201527f697374656e7420746f6b656e0000000000000000000000000000000000000000602082015250565b7f4f776e61626c653a2063616c6c6572206973206e6f7420746865206f776e6572600082015250565b7f4552433732314d657461646174613a2055524920717565727920666f72206e6f60008201527f6e6578697374656e7420746f6b656e0000000000000000000000000000000000602082015250565b7f4552433732313a20617070726f76616c20746f2063757272656e74206f776e6560008201527f7200000000000000000000000000000000000000000000000000000000000000602082015250565b7f4552433732313a207472616e736665722063616c6c6572206973206e6f74206f60008201527f776e6572206e6f7220617070726f766564000000000000000000000000000000602082015250565b7f4e465420616c7265616479206d696e7465642100000000000000000000000000600082015250565b7f4e65656420746f20706179207570210000000000000000000000000000000000600082015250565b61340181612c50565b811461340c57600080fd5b50565b61341881612c62565b811461342357600080fd5b50565b61342f81612c6e565b811461343a57600080fd5b50565b61344681612cba565b811461345157600080fd5b5056fea2646970667358221220fc3e9bd03b5dae0d9d0fb415c0017a0bced9ec79ff5c6afaa741108b9382d32a64736f6c63430008040033",
  "linkReferences": {},
  "deployedLinkReferences": {}
}