{
  "_format": "hh-sol-artifact-1",
  "contractName": "UnsatiableGuy",
  "sourceName": "contracts/UTG.sol",
  "abi": [
    {
      "inputs": [],
      "stateMutability": "nonpayable",
      "type": "constructor"
    },
    {
      "anonymous": false,
      "inputs": [
        {
          "indexed": true,
          "internalType": "address",
          "name": "owner",
          "type": "address"
        },
        {
          "indexed": true,
          "internalType": "address",
          "name": "approved",
          "type": "address"
        },
        {
          "indexed": true,
          "internalType": "uint256",
          "name": "tokenId",
          "type": "uint256"
        }
      ],
      "name": "Approval",
      "type": "event"
    },
    {
      "anonymous": false,
      "inputs": [
        {
          "indexed": true,
          "internalType": "address",
          "name": "owner",
          "type": "address"
        },
        {
          "indexed": true,
          "internalType": "address",
          "name": "operator",
          "type": "address"
        },
        {
          "indexed": false,
          "internalType": "bool",
          "name": "approved",
          "type": "bool"
        }
      ],
      "name": "ApprovalForAll",
      "type": "event"
    },
    {
      "anonymous": false,
      "inputs": [
        {
          "indexed": true,
          "internalType": "address",
          "name": "previousOwner",
          "type": "address"
        },
        {
          "indexed": true,
          "internalType": "address",
          "name": "newOwner",
          "type": "address"
        }
      ],
      "name": "OwnershipTransferred",
      "type": "event"
    },
    {
      "anonymous": false,
      "inputs": [
        {
          "indexed": true,
          "internalType": "address",
          "name": "from",
          "type": "address"
        },
        {
          "indexed": true,
          "internalType": "address",
          "name": "to",
          "type": "address"
        },
        {
          "indexed": true,
          "internalType": "uint256",
          "name": "tokenId",
          "type": "uint256"
        }
      ],
      "name": "Transfer",
      "type": "event"
    },
    {
      "inputs": [
        {
          "internalType": "address",
          "name": "to",
          "type": "address"
        },
        {
          "internalType": "uint256",
          "name": "tokenId",
          "type": "uint256"
        }
      ],
      "name": "approve",
      "outputs": [],
      "stateMutability": "nonpayable",
      "type": "function"
    },
    {
      "inputs": [
        {
          "internalType": "address",
          "name": "owner",
          "type": "address"
        }
      ],
      "name": "balanceOf",
      "outputs": [
        {
          "internalType": "uint256",
          "name": "",
          "type": "uint256"
        }
      ],
      "stateMutability": "view",
      "type": "function"
    },
    {
      "inputs": [],
      "name": "count",
      "outputs": [
        {
          "internalType": "uint256",
          "name": "",
          "type": "uint256"
        }
      ],
      "stateMutability": "view",
      "type": "function"
    },
    {
      "inputs": [
        {
          "internalType": "uint256",
          "name": "tokenId",
          "type": "uint256"
        }
      ],
      "name": "getApproved",
      "outputs": [
        {
          "internalType": "address",
          "name": "",
          "type": "address"
        }
      ],
      "stateMutability": "view",
      "type": "function"
    },
    {
      "inputs": [
        {
          "internalType": "address",
          "name": "owner",
          "type": "address"
        },
        {
          "internalType": "address",
          "name": "operator",
          "type": "address"
        }
      ],
      "name": "isApprovedForAll",
      "outputs": [
        {
          "internalType": "bool",
          "name": "",
          "type": "bool"
        }
      ],
      "stateMutability": "view",
      "type": "function"
    },
    {
      "inputs": [
        {
          "internalType": "string",
          "name": "uri",
          "type": "string"
        }
      ],
      "name": "isContentOwned",
      "outputs": [
        {
          "internalType": "bool",
          "name": "",
          "type": "bool"
        }
      ],
      "stateMutability": "view",
      "type": "function"
    },
    {
      "inputs": [],
      "name": "name",
      "outputs": [
        {
          "internalType": "string",
          "name": "",
          "type": "string"
        }
      ],
      "stateMutability": "view",
      "type": "function"
    },
    {
      "inputs": [],
      "name": "owner",
      "outputs": [
        {
          "internalType": "address",
          "name": "",
          "type": "address"
        }
      ],
      "stateMutability": "view",
      "type": "function"
    },
    {
      "inputs": [
        {
          "internalType": "uint256",
          "name": "tokenId",
          "type": "uint256"
        }
      ],
      "name": "ownerOf",
      "outputs": [
        {
          "internalType": "address",
          "name": "",
          "type": "address"
        }
      ],
      "stateMutability": "view",
      "type": "function"
    },
    {
      "inputs": [
        {
          "internalType": "address",
          "name": "recipient",
          "type": "address"
        },
        {
          "internalType": "string",
          "name": "_metadataURI",
          "type": "string"
        }
      ],
      "name": "payToMint",
      "outputs": [
        {
          "internalType": "uint256",
          "name": "",
          "type": "uint256"
        }
      ],
      "stateMutability": "payable",
      "type": "function"
    },
    {
      "inputs": [],
      "name": "renounceOwnership",
      "outputs": [],
      "stateMutability": "nonpayable",
      "type": "function"
    },
    {
      "inputs": [
        {
          "internalType": "address",
          "name": "to",
          "type": "address"
        },
        {
          "internalType": "string",
          "name": "uri",
          "type": "string"
        }
      ],
      "name": "safeMint",
      "outputs": [],
      "stateMutability": "nonpayable",
      "type": "function"
    },
    {
      "inputs": [
        {
          "internalType": "address",
          "name": "from",
          "type": "address"
        },
        {
          "internalType": "address",
          "name": "to",
          "type": "address"
        },
        {
          "internalType": "uint256",
          "name": "tokenId",
          "type": "uint256"
        }
      ],
      "name": "safeTransferFrom",
      "outputs": [],
      "stateMutability": "nonpayable",
      "type": "function"
    },
    {
      "inputs": [
        {
          "internalType": "address",
          "name": "from",
          "type": "address"
        },
        {
          "internalType": "address",
          "name": "to",
          "type": "address"
        },
        {
          "internalType": "uint256",
          "name": "tokenId",
          "type": "uint256"
        },
        {
          "internalType": "bytes",
          "name": "_data",
          "type": "bytes"
        }
      ],
      "name": "safeTransferFrom",
      "outputs": [],
      "stateMutability": "nonpayable",
      "type": "function"
    },
    {
      "inputs": [
        {
          "internalType": "address",
          "name": "operator",
          "type": "address"
        },
        {
          "internalType": "bool",
          "name": "approved",
          "type": "bool"
        }
      ],
      "name": "setApprovalForAll",
      "outputs": [],
      "stateMutability": "nonpayable",
      "type": "function"
    },
    {
      "inputs": [
        {
          "internalType": "bytes4",
          "name": "interfaceId",
          "type": "bytes4"
        }
      ],
      "name": "supportsInterface",
      "outputs": [
        {
          "internalType": "bool",
          "name": "",
          "type": "bool"
        }
      ],
      "stateMutability": "view",
      "type": "function"
    },
    {
      "inputs": [],
      "name": "symbol",
      "outputs": [
        {
          "internalType": "string",
          "name": "",
          "type": "string"
        }
      ],
      "stateMutability": "view",
      "type": "function"
    },
    {
      "inputs": [
        {
          "internalType": "uint256",
          "name": "tokenId",
          "type": "uint256"
        }
      ],
      "name": "tokenURI",
      "outputs": [
        {
          "internalType": "string",
          "name": "",
          "type": "string"
        }
      ],
      "stateMutability": "view",
      "type": "function"
    },
    {
      "inputs": [
        {
          "internalType": "address",
          "name": "from",
          "type": "address"
        },
        {
          "internalType": "address",
          "name": "to",
          "type": "address"
        },
        {
          "internalType": "uint256",
          "name": "tokenId",
          "type": "uint256"
        }
      ],
      "name": "transferFrom",
      "outputs": [],
      "stateMutability": "nonpayable",
      "type": "function"
    },
    {
      "inputs": [
        {
          "internalType": "address",
          "name": "newOwner",
          "type": "address"
        }
      ],
      "name": "transferOwnership",
      "outputs": [],
      "stateMutability": "nonpayable",
      "type": "function"
    }
  ],
  "bytecode": "0x60806040523480156200001157600080fd5b506040518060400160405280600d81526020017f556e7361746961626c65477579000000000000000000000000000000000000008152506040518060400160405280600381526020017f5554470000000000000000000000000000000000000000000000000000000000815250816000908051906020019062000096929190620001a6565b508060019080519060200190620000af929190620001a6565b505050620000d2620000c6620000d860201b60201c565b620000e060201b60201c565b620002bb565b600033905090565b6000600760009054906101000a900473ffffffffffffffffffffffffffffffffffffffff16905081600760006101000a81548173ffffffffffffffffffffffffffffffffffffffff021916908373ffffffffffffffffffffffffffffffffffffffff1602179055508173ffffffffffffffffffffffffffffffffffffffff168173ffffffffffffffffffffffffffffffffffffffff167f8be0079c531659141344cd1fd0a4f28419497f9722a3daafe3b4186f6b6457e060405160405180910390a35050565b828054620001b49062000256565b90600052602060002090601f016020900481019282620001d8576000855562000224565b82601f10620001f357805160ff191683800117855562000224565b8280016001018555821562000224579182015b828111156200022357825182559160200191906001019062000206565b5b50905062000233919062000237565b5090565b5b808211156200025257600081600090555060010162000238565b5090565b600060028204905060018216806200026f57607f821691505b602082108114156200028657620002856200028c565b5b50919050565b7f4e487b7100000000000000000000000000000000000000000000000000000000600052602260045260246000fd5b61348080620002cb6000396000f3fe60806040526004361061011f5760003560e01c8063715018a6116100a0578063b88d4fde11610064578063b88d4fde146103ec578063c87b56dd14610415578063d204c45e14610452578063e985e9c51461047b578063f2fde38b146104b85761011f565b8063715018a6146103195780638da5cb5b1461033057806395d89b411461035b5780639f1cabc614610386578063a22cb465146103c35761011f565b806323b872dd116100e757806323b872dd1461021d57806342842e0e14610246578063615fd9e21461026f5780636352211e1461029f57806370a08231146102dc5761011f565b806301ffc9a71461012457806306661abd1461016157806306fdde031461018c578063081812fc146101b7578063095ea7b3146101f4575b600080fd5b34801561013057600080fd5b5061014b600480360381019061014691906122ff565b6104e1565b60405161015891906127e9565b60405180910390f35b34801561016d57600080fd5b506101766105c3565b6040516101839190612aa6565b60405180910390f35b34801561019857600080fd5b506101a16105d4565b6040516101ae9190612804565b60405180910390f35b3480156101c357600080fd5b506101de60048036038101906101d99190612392565b610666565b6040516101eb9190612782565b60405180910390f35b34801561020057600080fd5b5061021b600480360381019061021691906122c3565b6106eb565b005b34801561022957600080fd5b50610244600480360381019061023f9190612169565b610803565b005b34801561025257600080fd5b5061026d60048036038101906102689190612169565b610863565b005b6102896004803603810190610284919061226f565b610883565b6040516102969190612aa6565b60405180910390f35b3480156102ab57600080fd5b506102c660048036038101906102c19190612392565b6109a5565b6040516102d39190612782565b60405180910390f35b3480156102e857600080fd5b5061030360048036038101906102fe9190612104565b610a57565b6040516103109190612aa6565b60405180910390f35b34801561032557600080fd5b5061032e610b0f565b005b34801561033c57600080fd5b50610345610b97565b6040516103529190612782565b60405180910390f35b34801561036757600080fd5b50610370610bc1565b60405161037d9190612804565b60405180910390f35b34801561039257600080fd5b506103ad60048036038101906103a89190612351565b610c53565b6040516103ba91906127e9565b60405180910390f35b3480156103cf57600080fd5b506103ea60048036038101906103e59190612233565b610c8e565b005b3480156103f857600080fd5b50610413600480360381019061040e91906121b8565b610ca4565b005b34801561042157600080fd5b5061043c60048036038101906104379190612392565b610d06565b6040516104499190612804565b60405180910390f35b34801561045e57600080fd5b506104796004803603810190610474919061226f565b610d18565b005b34801561048757600080fd5b506104a2600480360381019061049d919061212d565b610dc5565b6040516104af91906127e9565b60405180910390f35b3480156104c457600080fd5b506104df60048036038101906104da9190612104565b610e59565b005b60007f80ac58cd000000000000000000000000000000000000000000000000000000007bffffffffffffffffffffffffffffffffffffffffffffffffffffffff1916827bffffffffffffffffffffffffffffffffffffffffffffffffffffffff191614806105ac57507f5b5e139f000000000000000000000000000000000000000000000000000000007bffffffffffffffffffffffffffffffffffffffffffffffffffffffff1916827bffffffffffffffffffffffffffffffffffffffffffffffffffffffff1916145b806105bc57506105bb82610f51565b5b9050919050565b60006105cf6008610fbb565b905090565b6060600080546105e390612cfc565b80601f016020809104026020016040519081016040528092919081815260200182805461060f90612cfc565b801561065c5780601f106106315761010080835404028352916020019161065c565b820191906000526020600020905b81548152906001019060200180831161063f57829003601f168201915b5050505050905090565b600061067182610fc9565b6106b0576040517f08c379a00000000000000000000000000000000000000000000000000000000081526004016106a7906129e6565b60405180910390fd5b6004600083815260200190815260200160002060009054906101000a900473ffffffffffffffffffffffffffffffffffffffff169050919050565b60006106f6826109a5565b90508073ffffffffffffffffffffffffffffffffffffffff168373ffffffffffffffffffffffffffffffffffffffff161415610767576040517f08c379a000000000000000000000000000000000000000000000000000000000815260040161075e90612a46565b60405180910390fd5b8073ffffffffffffffffffffffffffffffffffffffff16610786611035565b73ffffffffffffffffffffffffffffffffffffffff1614806107b557506107b4816107af611035565b610dc5565b5b6107f4576040517f08c379a00000000000000000000000000000000000000000000000000000000081526004016107eb90612926565b60405180910390fd5b6107fe838361103d565b505050565b61081461080e611035565b826110f6565b610853576040517f08c379a000000000000000000000000000000000000000000000000000000000815260040161084a90612a66565b60405180910390fd5b61085e8383836111d4565b505050565b61087e83838360405180602001604052806000815250610ca4565b505050565b600060016009836040516108979190612747565b908152602001604051809103902060009054906101000a900460ff1660ff1614156108f7576040517f08c379a00000000000000000000000000000000000000000000000000000000081526004016108ee906128c6565b60405180910390fd5b6706f05b59d3b20000341015610942576040517f08c379a000000000000000000000000000000000000000000000000000000000815260040161093990612a86565b60405180910390fd5b600061094e6008610fbb565b905061095a600861143b565b6109648482611451565b61096e818461162b565b60016009846040516109809190612747565b908152602001604051809103902060009054906101000a905050508091505092915050565b6000806002600084815260200190815260200160002060009054906101000a900473ffffffffffffffffffffffffffffffffffffffff169050600073ffffffffffffffffffffffffffffffffffffffff168173ffffffffffffffffffffffffffffffffffffffff161415610a4e576040517f08c379a0000000000000000000000000000000000000000000000000000000008152600401610a4590612966565b60405180910390fd5b80915050919050565b60008073ffffffffffffffffffffffffffffffffffffffff168273ffffffffffffffffffffffffffffffffffffffff161415610ac8576040517f08c379a0000000000000000000000000000000000000000000000000000000008152600401610abf90612946565b60405180910390fd5b600360008373ffffffffffffffffffffffffffffffffffffffff1673ffffffffffffffffffffffffffffffffffffffff168152602001908152602001600020549050919050565b610b17611035565b73ffffffffffffffffffffffffffffffffffffffff16610b35610b97565b73ffffffffffffffffffffffffffffffffffffffff1614610b8b576040517f08c379a0000000000000000000000000000000000000000000000000000000008152600401610b8290612a06565b60405180910390fd5b610b95600061169f565b565b6000600760009054906101000a900473ffffffffffffffffffffffffffffffffffffffff16905090565b606060018054610bd090612cfc565b80601f0160208091040260200160405190810160405280929190818152602001828054610bfc90612cfc565b8015610c495780601f10610c1e57610100808354040283529160200191610c49565b820191906000526020600020905b815481529060010190602001808311610c2c57829003601f168201915b5050505050905090565b60006001600983604051610c679190612747565b908152602001604051809103902060009054906101000a900460ff1660ff16149050919050565b610ca0610c99611035565b8383611765565b5050565b610cb5610caf611035565b836110f6565b610cf4576040517f08c379a0000000000000000000000000000000000000000000000000000000008152600401610ceb90612a66565b60405180910390fd5b610d00848484846118d2565b50505050565b6060610d118261192e565b9050919050565b610d20611035565b73ffffffffffffffffffffffffffffffffffffffff16610d3e610b97565b73ffffffffffffffffffffffffffffffffffffffff1614610d94576040517f08c379a0000000000000000000000000000000000000000000000000000000008152600401610d8b90612a06565b60405180910390fd5b6000610da06008610fbb565b9050610dac600861143b565b610db68382611a80565b610dc0818361162b565b505050565b6000600560008473ffffffffffffffffffffffffffffffffffffffff1673ffffffffffffffffffffffffffffffffffffffff16815260200190815260200160002060008373ffffffffffffffffffffffffffffffffffffffff1673ffffffffffffffffffffffffffffffffffffffff16815260200190815260200160002060009054906101000a900460ff16905092915050565b610e61611035565b73ffffffffffffffffffffffffffffffffffffffff16610e7f610b97565b73ffffffffffffffffffffffffffffffffffffffff1614610ed5576040517f08c379a0000000000000000000000000000000000000000000000000000000008152600401610ecc90612a06565b60405180910390fd5b600073ffffffffffffffffffffffffffffffffffffffff168173ffffffffffffffffffffffffffffffffffffffff161415610f45576040517f08c379a0000000000000000000000000000000000000000000000000000000008152600401610f3c90612846565b60405180910390fd5b610f4e8161169f565b50565b60007f01ffc9a7000000000000000000000000000000000000000000000000000000007bffffffffffffffffffffffffffffffffffffffffffffffffffffffff1916827bffffffffffffffffffffffffffffffffffffffffffffffffffffffff1916149050919050565b600081600001549050919050565b60008073ffffffffffffffffffffffffffffffffffffffff166002600084815260200190815260200160002060009054906101000a900473ffffffffffffffffffffffffffffffffffffffff1673ffffffffffffffffffffffffffffffffffffffff1614159050919050565b600033905090565b816004600083815260200190815260200160002060006101000a81548173ffffffffffffffffffffffffffffffffffffffff021916908373ffffffffffffffffffffffffffffffffffffffff160217905550808273ffffffffffffffffffffffffffffffffffffffff166110b0836109a5565b73ffffffffffffffffffffffffffffffffffffffff167f8c5be1e5ebec7d5bd14f71427d1e84f3dd0314c0f7b2291e5b200ac8c7c3b92560405160405180910390a45050565b600061110182610fc9565b611140576040517f08c379a000000000000000000000000000000000000000000000000000000000815260040161113790612906565b60405180910390fd5b600061114b836109a5565b90508073ffffffffffffffffffffffffffffffffffffffff168473ffffffffffffffffffffffffffffffffffffffff1614806111ba57508373ffffffffffffffffffffffffffffffffffffffff166111a284610666565b73ffffffffffffffffffffffffffffffffffffffff16145b806111cb57506111ca8185610dc5565b5b91505092915050565b8273ffffffffffffffffffffffffffffffffffffffff166111f4826109a5565b73ffffffffffffffffffffffffffffffffffffffff161461124a576040517f08c379a000000000000000000000000000000000000000000000000000000000815260040161124190612866565b60405180910390fd5b600073ffffffffffffffffffffffffffffffffffffffff168273ffffffffffffffffffffffffffffffffffffffff1614156112ba576040517f08c379a00000000000000000000000000000000000000000000000000000000081526004016112b1906128a6565b60405180910390fd5b6112c5838383611a9e565b6112d060008261103d565b6001600360008573ffffffffffffffffffffffffffffffffffffffff1673ffffffffffffffffffffffffffffffffffffffff16815260200190815260200160002060008282546113209190612c12565b925050819055506001600360008473ffffffffffffffffffffffffffffffffffffffff1673ffffffffffffffffffffffffffffffffffffffff16815260200190815260200160002060008282546113779190612b8b565b92505081905550816002600083815260200190815260200160002060006101000a81548173ffffffffffffffffffffffffffffffffffffffff021916908373ffffffffffffffffffffffffffffffffffffffff160217905550808273ffffffffffffffffffffffffffffffffffffffff168473ffffffffffffffffffffffffffffffffffffffff167fddf252ad1be2c89b69c2b068fc378daa952ba7f163c4a11628f55a4df523b3ef60405160405180910390a4611436838383611aa3565b505050565b6001816000016000828254019250508190555050565b600073ffffffffffffffffffffffffffffffffffffffff168273ffffffffffffffffffffffffffffffffffffffff1614156114c1576040517f08c379a00000000000000000000000000000000000000000000000000000000081526004016114b8906129a6565b60405180910390fd5b6114ca81610fc9565b1561150a576040517f08c379a000000000000000000000000000000000000000000000000000000000815260040161150190612886565b60405180910390fd5b61151660008383611a9e565b6001600360008473ffffffffffffffffffffffffffffffffffffffff1673ffffffffffffffffffffffffffffffffffffffff16815260200190815260200160002060008282546115669190612b8b565b92505081905550816002600083815260200190815260200160002060006101000a81548173ffffffffffffffffffffffffffffffffffffffff021916908373ffffffffffffffffffffffffffffffffffffffff160217905550808273ffffffffffffffffffffffffffffffffffffffff16600073ffffffffffffffffffffffffffffffffffffffff167fddf252ad1be2c89b69c2b068fc378daa952ba7f163c4a11628f55a4df523b3ef60405160405180910390a461162760008383611aa3565b5050565b61163482610fc9565b611673576040517f08c379a000000000000000000000000000000000000000000000000000000000815260040161166a90612986565b60405180910390fd5b8060066000848152602001908152602001600020908051906020019061169a929190611f28565b505050565b6000600760009054906101000a900473ffffffffffffffffffffffffffffffffffffffff16905081600760006101000a81548173ffffffffffffffffffffffffffffffffffffffff021916908373ffffffffffffffffffffffffffffffffffffffff1602179055508173ffffffffffffffffffffffffffffffffffffffff168173ffffffffffffffffffffffffffffffffffffffff167f8be0079c531659141344cd1fd0a4f28419497f9722a3daafe3b4186f6b6457e060405160405180910390a35050565b8173ffffffffffffffffffffffffffffffffffffffff168373ffffffffffffffffffffffffffffffffffffffff1614156117d4576040517f08c379a00000000000000000000000000000000000000000000000000000000081526004016117cb906128e6565b60405180910390fd5b80600560008573ffffffffffffffffffffffffffffffffffffffff1673ffffffffffffffffffffffffffffffffffffffff16815260200190815260200160002060008473ffffffffffffffffffffffffffffffffffffffff1673ffffffffffffffffffffffffffffffffffffffff16815260200190815260200160002060006101000a81548160ff0219169083151502179055508173ffffffffffffffffffffffffffffffffffffffff168373ffffffffffffffffffffffffffffffffffffffff167f17307eab39ab6107e8899845ad3d59bd9653f200f220920489ca2b5937696c31836040516118c591906127e9565b60405180910390a3505050565b6118dd8484846111d4565b6118e984848484611aa8565b611928576040517f08c379a000000000000000000000000000000000000000000000000000000000815260040161191f90612826565b60405180910390fd5b50505050565b606061193982610fc9565b611978576040517f08c379a000000000000000000000000000000000000000000000000000000000815260040161196f906129c6565b60405180910390fd5b600060066000848152602001908152602001600020805461199890612cfc565b80601f01602080910402602001604051908101604052809291908181526020018280546119c490612cfc565b8015611a115780601f106119e657610100808354040283529160200191611a11565b820191906000526020600020905b8154815290600101906020018083116119f457829003601f168201915b505050505090506000611a22611c3f565b9050600081511415611a38578192505050611a7b565b600082511115611a6d578082604051602001611a5592919061275e565b60405160208183030381529060405292505050611a7b565b611a7684611c56565b925050505b919050565b611a9a828260405180602001604052806000815250611cfd565b5050565b505050565b505050565b6000611ac98473ffffffffffffffffffffffffffffffffffffffff16611d58565b15611c32578373ffffffffffffffffffffffffffffffffffffffff1663150b7a02611af2611035565b8786866040518563ffffffff1660e01b8152600401611b14949392919061279d565b602060405180830381600087803b158015611b2e57600080fd5b505af1925050508015611b5f57506040513d601f19601f82011682018060405250810190611b5c9190612328565b60015b611be2573d8060008114611b8f576040519150601f19603f3d011682016040523d82523d6000602084013e611b94565b606091505b50600081511415611bda576040517f08c379a0000000000000000000000000000000000000000000000000000000008152600401611bd190612826565b60405180910390fd5b805181602001fd5b63150b7a0260e01b7bffffffffffffffffffffffffffffffffffffffffffffffffffffffff1916817bffffffffffffffffffffffffffffffffffffffffffffffffffffffff191614915050611c37565b600190505b949350505050565b606060405180602001604052806000815250905090565b6060611c6182610fc9565b611ca0576040517f08c379a0000000000000000000000000000000000000000000000000000000008152600401611c9790612a26565b60405180910390fd5b6000611caa611c3f565b90506000815111611cca5760405180602001604052806000815250611cf5565b80611cd484611d7b565b604051602001611ce592919061275e565b6040516020818303038152906040525b915050919050565b611d078383611451565b611d146000848484611aa8565b611d53576040517f08c379a0000000000000000000000000000000000000000000000000000000008152600401611d4a90612826565b60405180910390fd5b505050565b6000808273ffffffffffffffffffffffffffffffffffffffff163b119050919050565b60606000821415611dc3576040518060400160405280600181526020017f30000000000000000000000000000000000000000000000000000000000000008152509050611f23565b600082905060005b60008214611df5578080611dde90612d5f565b915050600a82611dee9190612be1565b9150611dcb565b60008167ffffffffffffffff811115611e37577f4e487b7100000000000000000000000000000000000000000000000000000000600052604160045260246000fd5b6040519080825280601f01601f191660200182016040528015611e695781602001600182028036833780820191505090505b5090505b60008514611f1c57600182611e829190612c12565b9150600a85611e919190612da8565b6030611e9d9190612b8b565b60f81b818381518110611ed9577f4e487b7100000000000000000000000000000000000000000000000000000000600052603260045260246000fd5b60200101907effffffffffffffffffffffffffffffffffffffffffffffffffffffffffffff1916908160001a905350600a85611f159190612be1565b9450611e6d565b8093505050505b919050565b828054611f3490612cfc565b90600052602060002090601f016020900481019282611f565760008555611f9d565b82601f10611f6f57805160ff1916838001178555611f9d565b82800160010185558215611f9d579182015b82811115611f9c578251825591602001919060010190611f81565b5b509050611faa9190611fae565b5090565b5b80821115611fc7576000816000905550600101611faf565b5090565b6000611fde611fd984612ae6565b612ac1565b905082815260208101848484011115611ff657600080fd5b612001848285612cba565b509392505050565b600061201c61201784612b17565b612ac1565b90508281526020810184848401111561203457600080fd5b61203f848285612cba565b509392505050565b600081359050612056816133ee565b92915050565b60008135905061206b81613405565b92915050565b6000813590506120808161341c565b92915050565b6000815190506120958161341c565b92915050565b600082601f8301126120ac57600080fd5b81356120bc848260208601611fcb565b91505092915050565b600082601f8301126120d657600080fd5b81356120e6848260208601612009565b91505092915050565b6000813590506120fe81613433565b92915050565b60006020828403121561211657600080fd5b600061212484828501612047565b91505092915050565b6000806040838503121561214057600080fd5b600061214e85828601612047565b925050602061215f85828601612047565b9150509250929050565b60008060006060848603121561217e57600080fd5b600061218c86828701612047565b935050602061219d86828701612047565b92505060406121ae868287016120ef565b9150509250925092565b600080600080608085870312156121ce57600080fd5b60006121dc87828801612047565b94505060206121ed87828801612047565b93505060406121fe878288016120ef565b925050606085013567ffffffffffffffff81111561221b57600080fd5b6122278782880161209b565b91505092959194509250565b6000806040838503121561224657600080fd5b600061225485828601612047565b92505060206122658582860161205c565b9150509250929050565b6000806040838503121561228257600080fd5b600061229085828601612047565b925050602083013567ffffffffffffffff8111156122ad57600080fd5b6122b9858286016120c5565b9150509250929050565b600080604083850312156122d657600080fd5b60006122e485828601612047565b92505060206122f5858286016120ef565b9150509250929050565b60006020828403121561231157600080fd5b600061231f84828501612071565b91505092915050565b60006020828403121561233a57600080fd5b600061234884828501612086565b91505092915050565b60006020828403121561236357600080fd5b600082013567ffffffffffffffff81111561237d57600080fd5b612389848285016120c5565b91505092915050565b6000602082840312156123a457600080fd5b60006123b2848285016120ef565b91505092915050565b6123c481612c46565b82525050565b6123d381612c58565b82525050565b60006123e482612b48565b6123ee8185612b5e565b93506123fe818560208601612cc9565b61240781612e95565b840191505092915050565b600061241d82612b53565b6124278185612b6f565b9350612437818560208601612cc9565b61244081612e95565b840191505092915050565b600061245682612b53565b6124608185612b80565b9350612470818560208601612cc9565b80840191505092915050565b6000612489603283612b6f565b915061249482612ea6565b604082019050919050565b60006124ac602683612b6f565b91506124b782612ef5565b604082019050919050565b60006124cf602583612b6f565b91506124da82612f44565b604082019050919050565b60006124f2601c83612b6f565b91506124fd82612f93565b602082019050919050565b6000612515602483612b6f565b915061252082612fbc565b604082019050919050565b6000612538601283612b6f565b91506125438261300b565b602082019050919050565b600061255b601983612b6f565b915061256682613034565b602082019050919050565b600061257e602c83612b6f565b91506125898261305d565b604082019050919050565b60006125a1603883612b6f565b91506125ac826130ac565b604082019050919050565b60006125c4602a83612b6f565b91506125cf826130fb565b604082019050919050565b60006125e7602983612b6f565b91506125f28261314a565b604082019050919050565b600061260a602e83612b6f565b915061261582613199565b604082019050919050565b600061262d602083612b6f565b9150612638826131e8565b602082019050919050565b6000612650603183612b6f565b915061265b82613211565b604082019050919050565b6000612673602c83612b6f565b915061267e82613260565b604082019050919050565b6000612696602083612b6f565b91506126a1826132af565b602082019050919050565b60006126b9602f83612b6f565b91506126c4826132d8565b604082019050919050565b60006126dc602183612b6f565b91506126e782613327565b604082019050919050565b60006126ff603183612b6f565b915061270a82613376565b604082019050919050565b6000612722600e83612b6f565b915061272d826133c5565b602082019050919050565b61274181612cb0565b82525050565b6000612753828461244b565b915081905092915050565b600061276a828561244b565b9150612776828461244b565b91508190509392505050565b600060208201905061279760008301846123bb565b92915050565b60006080820190506127b260008301876123bb565b6127bf60208301866123bb565b6127cc6040830185612738565b81810360608301526127de81846123d9565b905095945050505050565b60006020820190506127fe60008301846123ca565b92915050565b6000602082019050818103600083015261281e8184612412565b905092915050565b6000602082019050818103600083015261283f8161247c565b9050919050565b6000602082019050818103600083015261285f8161249f565b9050919050565b6000602082019050818103600083015261287f816124c2565b9050919050565b6000602082019050818103600083015261289f816124e5565b9050919050565b600060208201905081810360008301526128bf81612508565b9050919050565b600060208201905081810360008301526128df8161252b565b9050919050565b600060208201905081810360008301526128ff8161254e565b9050919050565b6000602082019050818103600083015261291f81612571565b9050919050565b6000602082019050818103600083015261293f81612594565b9050919050565b6000602082019050818103600083015261295f816125b7565b9050919050565b6000602082019050818103600083015261297f816125da565b9050919050565b6000602082019050818103600083015261299f816125fd565b9050919050565b600060208201905081810360008301526129bf81612620565b9050919050565b600060208201905081810360008301526129df81612643565b9050919050565b600060208201905081810360008301526129ff81612666565b9050919050565b60006020820190508181036000830152612a1f81612689565b9050919050565b60006020820190508181036000830152612a3f816126ac565b9050919050565b60006020820190508181036000830152612a5f816126cf565b9050919050565b60006020820190508181036000830152612a7f816126f2565b9050919050565b60006020820190508181036000830152612a9f81612715565b9050919050565b6000602082019050612abb6000830184612738565b92915050565b6000612acb612adc565b9050612ad78282612d2e565b919050565b6000604051905090565b600067ffffffffffffffff821115612b0157612b00612e66565b5b612b0a82612e95565b9050602081019050919050565b600067ffffffffffffffff821115612b3257612b31612e66565b5b612b3b82612e95565b9050602081019050919050565b600081519050919050565b600081519050919050565b600082825260208201905092915050565b600082825260208201905092915050565b600081905092915050565b6000612b9682612cb0565b9150612ba183612cb0565b9250827fffffffffffffffffffffffffffffffffffffffffffffffffffffffffffffffff03821115612bd657612bd5612dd9565b5b828201905092915050565b6000612bec82612cb0565b9150612bf783612cb0565b925082612c0757612c06612e08565b5b828204905092915050565b6000612c1d82612cb0565b9150612c2883612cb0565b925082821015612c3b57612c3a612dd9565b5b828203905092915050565b6000612c5182612c90565b9050919050565b60008115159050919050565b60007fffffffff0000000000000000000000000000000000000000000000000000000082169050919050565b600073ffffffffffffffffffffffffffffffffffffffff82169050919050565b6000819050919050565b82818337600083830152505050565b60005b83811015612ce7578082015181840152602081019050612ccc565b83811115612cf6576000848401525b50505050565b60006002820490506001821680612d1457607f821691505b60208210811415612d2857612d27612e37565b5b50919050565b612d3782612e95565b810181811067ffffffffffffffff82111715612d5657612d55612e66565b5b80604052505050565b6000612d6a82612cb0565b91507fffffffffffffffffffffffffffffffffffffffffffffffffffffffffffffffff821415612d9d57612d9c612dd9565b5b600182019050919050565b6000612db382612cb0565b9150612dbe83612cb0565b925082612dce57612dcd612e08565b5b828206905092915050565b7f4e487b7100000000000000000000000000000000000000000000000000000000600052601160045260246000fd5b7f4e487b7100000000000000000000000000000000000000000000000000000000600052601260045260246000fd5b7f4e487b7100000000000000000000000000000000000000000000000000000000600052602260045260246000fd5b7f4e487b7100000000000000000000000000000000000000000000000000000000600052604160045260246000fd5b6000601f19601f8301169050919050565b7f4552433732313a207472616e7366657220746f206e6f6e20455243373231526560008201527f63656976657220696d706c656d656e7465720000000000000000000000000000602082015250565b7f4f776e61626c653a206e6577206f776e657220697320746865207a65726f206160008201527f6464726573730000000000000000000000000000000000000000000000000000602082015250565b7f4552433732313a207472616e736665722066726f6d20696e636f72726563742060008201527f6f776e6572000000000000000000000000000000000000000000000000000000602082015250565b7f4552433732313a20746f6b656e20616c7265616479206d696e74656400000000600082015250565b7f4552433732313a207472616e7366657220746f20746865207a65726f2061646460008201527f7265737300000000000000000000000000000000000000000000000000000000602082015250565b7f4e465420616c7265616479206d696e7465640000000000000000000000000000600082015250565b7f4552433732313a20617070726f766520746f2063616c6c657200000000000000600082015250565b7f4552433732313a206f70657261746f7220717565727920666f72206e6f6e657860008201527f697374656e7420746f6b656e0000000000000000000000000000000000000000602082015250565b7f4552433732313a20617070726f76652063616c6c6572206973206e6f74206f7760008201527f6e6572206e6f7220617070726f76656420666f7220616c6c0000000000000000602082015250565b7f4552433732313a2062616c616e636520717565727920666f7220746865207a6560008201527f726f206164647265737300000000000000000000000000000000000000000000602082015250565b7f4552433732313a206f776e657220717565727920666f72206e6f6e657869737460008201527f656e7420746f6b656e0000000000000000000000000000000000000000000000602082015250565b7f45524337323155524953746f726167653a2055524920736574206f66206e6f6e60008201527f6578697374656e7420746f6b656e000000000000000000000000000000000000602082015250565b7f4552433732313a206d696e7420746f20746865207a65726f2061646472657373600082015250565b7f45524337323155524953746f726167653a2055524920717565727920666f722060008201527f6e6f6e6578697374656e7420746f6b656e000000000000000000000000000000602082015250565b7f4552433732313a20617070726f76656420717565727920666f72206e6f6e657860008201527f697374656e7420746f6b656e0000000000000000000000000000000000000000602082015250565b7f4f776e61626c653a2063616c6c6572206973206e6f7420746865206f776e6572600082015250565b7f4552433732314d657461646174613a2055524920717565727920666f72206e6f60008201527f6e6578697374656e7420746f6b656e0000000000000000000000000000000000602082015250565b7f4552433732313a20617070726f76616c20746f2063757272656e74206f776e6560008201527f7200000000000000000000000000000000000000000000000000000000000000602082015250565b7f4552433732313a207472616e736665722063616c6c6572206973206e6f74206f60008201527f776e6572206e6f7220617070726f766564000000000000000000000000000000602082015250565b7f4e65656420746f20706179207570000000000000000000000000000000000000600082015250565b6133f781612c46565b811461340257600080fd5b50565b61340e81612c58565b811461341957600080fd5b50565b61342581612c64565b811461343057600080fd5b50565b61343c81612cb0565b811461344757600080fd5b5056fea2646970667358221220bcd205167a81e256ee56c2b146518a32dd054359c43f1dafc6d0c0a9abb8aaae64736f6c63430008040033",
  "linkReferences": {},
  "deployedLinkReferences": {}
}